{
  "contractName": "OwnerManagment",
  "abi": [
    {
      "anonymous": false,
      "inputs": [
        {
          "indexed": false,
          "internalType": "string",
          "name": "name",
          "type": "string"
        },
        {
          "indexed": false,
          "internalType": "address",
          "name": "wallet",
          "type": "address"
        },
        {
          "indexed": false,
          "internalType": "string",
          "name": "role",
          "type": "string"
        }
      ],
      "name": "userProfile",
      "type": "event"
    },
    {
      "inputs": [
        {
          "internalType": "string",
          "name": "name",
          "type": "string"
        },
        {
          "internalType": "string",
          "name": "hash",
          "type": "string"
        },
        {
          "internalType": "string",
          "name": "brand",
          "type": "string"
        },
        {
          "internalType": "string",
          "name": "description",
          "type": "string"
        },
        {
          "internalType": "string",
          "name": "category",
          "type": "string"
        }
      ],
      "name": "addProduct",
      "outputs": [],
      "stateMutability": "nonpayable",
      "type": "function"
    },
    {
      "inputs": [
        {
          "internalType": "address",
          "name": "newOwner",
          "type": "address"
        },
        {
          "internalType": "string",
          "name": "hash",
          "type": "string"
        }
      ],
      "name": "TransferOwnerShip",
      "outputs": [
        {
          "internalType": "bool",
          "name": "",
          "type": "bool"
        }
      ],
      "stateMutability": "nonpayable",
      "type": "function"
    },
    {
      "inputs": [
        {
          "internalType": "string",
          "name": "productHash",
          "type": "string"
        }
      ],
      "name": "reportStolen",
      "outputs": [],
      "stateMutability": "nonpayable",
      "type": "function"
    },
    {
      "inputs": [
        {
          "internalType": "string",
          "name": "name",
          "type": "string"
        },
        {
          "internalType": "string",
          "name": "role",
          "type": "string"
        }
      ],
      "name": "addUser",
      "outputs": [],
      "stateMutability": "nonpayable",
      "type": "function"
    },
    {
      "inputs": [
        {
          "internalType": "string",
          "name": "hash",
          "type": "string"
        }
      ],
      "name": "getProductDetails",
      "outputs": [
        {
          "components": [
            {
              "internalType": "string",
              "name": "name",
              "type": "string"
            },
            {
              "internalType": "string",
              "name": "brand",
              "type": "string"
            },
            {
              "internalType": "bool",
              "name": "theft",
              "type": "bool"
            },
            {
              "internalType": "string",
              "name": "description",
              "type": "string"
            },
            {
              "internalType": "string",
              "name": "hash",
              "type": "string"
            },
            {
              "internalType": "string",
              "name": "category",
              "type": "string"
            },
            {
              "internalType": "address[]",
              "name": "customers",
              "type": "address[]"
            },
            {
              "internalType": "address",
              "name": "owner",
              "type": "address"
            }
          ],
          "internalType": "struct OwnerManagment.Product",
          "name": "",
          "type": "tuple"
        }
      ],
      "stateMutability": "view",
      "type": "function",
      "constant": true
    },
    {
      "inputs": [],
      "name": "getUserDetails",
      "outputs": [],
      "stateMutability": "nonpayable",
      "type": "function"
    },
    {
      "inputs": [],
      "name": "getUserPortFolio",
      "outputs": [
        {
          "internalType": "string[]",
          "name": "",
          "type": "string[]"
        }
      ],
      "stateMutability": "view",
      "type": "function",
      "constant": true
    },
    {
      "inputs": [],
      "name": "returnHistory",
      "outputs": [
        {
          "components": [
            {
              "internalType": "address",
              "name": "sender",
              "type": "address"
            },
            {
              "internalType": "address",
              "name": "reciever",
              "type": "address"
            },
            {
              "internalType": "string",
              "name": "productHash",
              "type": "string"
            }
          ],
          "internalType": "struct OwnerManagment.transaction[]",
          "name": "",
          "type": "tuple[]"
        }
      ],
      "stateMutability": "view",
      "type": "function",
      "constant": true
    }
  ],
  "bytecode": "0x608060405234801561001057600080fd5b506125d3806100206000396000f3fe608060405234801561001057600080fd5b50600436106100885760003560e01c8063889e6f891161005b578063889e6f8914610125578063942886be14610143578063a4778f141461014d578063ef6da8d41461016b57610088565b8063079eaf341461008d578063198c59b0146100a95780631be0c30f146100d957806370fe9a4014610109575b600080fd5b6100a760048036038101906100a2919061164b565b610187565b005b6100c360048036038101906100be91906116c3565b610236565b6040516100d09190611969565b60405180910390f35b6100f360048036038101906100ee91906119b7565b610648565b6040516101009190611a22565b60405180910390f35b610123600480360381019061011e91906116c3565b6109b7565b005b61012d610aec565b60405161013a9190611aff565b60405180910390f35b61014b610c87565b005b610155610da8565b6040516101629190611c33565b60405180910390f35b61018560048036038101906101809190611c55565b610f45565b005b6000600260003373ffffffffffffffffffffffffffffffffffffffff1673ffffffffffffffffffffffffffffffffffffffff1681526020019081526020016000209050828160000190816101db9190611f72565b50338160010160006101000a81548173ffffffffffffffffffffffffffffffffffffffff021916908373ffffffffffffffffffffffffffffffffffffffff160217905550818160020190816102309190611f72565b50505050565b61023e611437565b60008260405161024e9190612080565b90815260200160405180910390206040518061010001604052908160008201805461027890611d8b565b80601f01602080910402602001604051908101604052809291908181526020018280546102a490611d8b565b80156102f15780601f106102c6576101008083540402835291602001916102f1565b820191906000526020600020905b8154815290600101906020018083116102d457829003601f168201915b5050505050815260200160018201805461030a90611d8b565b80601f016020809104026020016040519081016040528092919081815260200182805461033690611d8b565b80156103835780601f1061035857610100808354040283529160200191610383565b820191906000526020600020905b81548152906001019060200180831161036657829003601f168201915b505050505081526020016002820160009054906101000a900460ff161515151581526020016003820180546103b790611d8b565b80601f01602080910402602001604051908101604052809291908181526020018280546103e390611d8b565b80156104305780601f1061040557610100808354040283529160200191610430565b820191906000526020600020905b81548152906001019060200180831161041357829003601f168201915b5050505050815260200160048201805461044990611d8b565b80601f016020809104026020016040519081016040528092919081815260200182805461047590611d8b565b80156104c25780601f10610497576101008083540402835291602001916104c2565b820191906000526020600020905b8154815290600101906020018083116104a557829003601f168201915b505050505081526020016005820180546104db90611d8b565b80601f016020809104026020016040519081016040528092919081815260200182805461050790611d8b565b80156105545780601f1061052957610100808354040283529160200191610554565b820191906000526020600020905b81548152906001019060200180831161053757829003601f168201915b50505050508152602001600682018054806020026020016040519081016040528092919081815260200182805480156105e257602002820191906000526020600020905b8160009054906101000a900473ffffffffffffffffffffffffffffffffffffffff1673ffffffffffffffffffffffffffffffffffffffff1681526020019060010190808311610598575b505050505081526020016007820160009054906101000a900473ffffffffffffffffffffffffffffffffffffffff1673ffffffffffffffffffffffffffffffffffffffff1673ffffffffffffffffffffffffffffffffffffffff16815250509050919050565b600080826040516106599190612080565b908152602001604051809103902060070160009054906101000a900473ffffffffffffffffffffffffffffffffffffffff1673ffffffffffffffffffffffffffffffffffffffff163373ffffffffffffffffffffffffffffffffffffffff16146106f8576040517f08c379a00000000000000000000000000000000000000000000000000000000081526004016106ef9061211a565b60405180910390fd5b826000836040516107099190612080565b908152602001604051809103902060070160006101000a81548173ffffffffffffffffffffffffffffffffffffffff021916908373ffffffffffffffffffffffffffffffffffffffff1602179055506000826040516107689190612080565b9081526020016040518091039020600601839080600181540180825580915050600190039060005260206000200160009091909190916101000a81548173ffffffffffffffffffffffffffffffffffffffff021916908373ffffffffffffffffffffffffffffffffffffffff160217905550600160008473ffffffffffffffffffffffffffffffffffffffff1673ffffffffffffffffffffffffffffffffffffffff1681526020019081526020016000208290806001815401808255809150506001900390600052602060002001600090919091909150908161084b9190611f72565b50610894600160003373ffffffffffffffffffffffffffffffffffffffff1673ffffffffffffffffffffffffffffffffffffffff1681526020019081526020016000208361122a565b50600360405180606001604052803373ffffffffffffffffffffffffffffffffffffffff1681526020018573ffffffffffffffffffffffffffffffffffffffff16815260200184815250908060018154018082558091505060019003906000526020600020906003020160009091909190915060008201518160000160006101000a81548173ffffffffffffffffffffffffffffffffffffffff021916908373ffffffffffffffffffffffffffffffffffffffff16021790555060208201518160010160006101000a81548173ffffffffffffffffffffffffffffffffffffffff021916908373ffffffffffffffffffffffffffffffffffffffff16021790555060408201518160020190816109aa9190611f72565b5050506001905092915050565b6000816040516109c79190612080565b908152602001604051809103902060070160009054906101000a900473ffffffffffffffffffffffffffffffffffffffff1673ffffffffffffffffffffffffffffffffffffffff163373ffffffffffffffffffffffffffffffffffffffff1614610a66576040517f08c379a0000000000000000000000000000000000000000000000000000000008152600401610a5d90612186565b60405180910390fd5b6001600082604051610a789190612080565b908152602001604051809103902060020160006101000a81548160ff021916908315150217905550610ae8600160003373ffffffffffffffffffffffffffffffffffffffff1673ffffffffffffffffffffffffffffffffffffffff1681526020019081526020016000208261122a565b5050565b60606000600160003373ffffffffffffffffffffffffffffffffffffffff1673ffffffffffffffffffffffffffffffffffffffff1681526020019081526020016000208054905011610b73576040517f08c379a0000000000000000000000000000000000000000000000000000000008152600401610b6a906121f2565b60405180910390fd5b600160003373ffffffffffffffffffffffffffffffffffffffff1673ffffffffffffffffffffffffffffffffffffffff168152602001908152602001600020805480602002602001604051908101604052809291908181526020016000905b82821015610c7e578382906000526020600020018054610bf190611d8b565b80601f0160208091040260200160405190810160405280929190818152602001828054610c1d90611d8b565b8015610c6a5780601f10610c3f57610100808354040283529160200191610c6a565b820191906000526020600020905b815481529060010190602001808311610c4d57829003601f168201915b505050505081526020019060010190610bd2565b50505050905090565b7fda7f1b8da7beb98747cd29867adf26e3cb598f42d94f88f8401d0eb09d415045600260003373ffffffffffffffffffffffffffffffffffffffff1673ffffffffffffffffffffffffffffffffffffffff168152602001908152602001600020600001600260003373ffffffffffffffffffffffffffffffffffffffff1673ffffffffffffffffffffffffffffffffffffffff16815260200190815260200160002060010160009054906101000a900473ffffffffffffffffffffffffffffffffffffffff16600260003373ffffffffffffffffffffffffffffffffffffffff1673ffffffffffffffffffffffffffffffffffffffff168152602001908152602001600020600201604051610d9e939291906122a5565b60405180910390a1565b60606003805480602002602001604051908101604052809291908181526020016000905b82821015610f3c57838290600052602060002090600302016040518060600160405290816000820160009054906101000a900473ffffffffffffffffffffffffffffffffffffffff1673ffffffffffffffffffffffffffffffffffffffff1673ffffffffffffffffffffffffffffffffffffffff1681526020016001820160009054906101000a900473ffffffffffffffffffffffffffffffffffffffff1673ffffffffffffffffffffffffffffffffffffffff1673ffffffffffffffffffffffffffffffffffffffff168152602001600282018054610eab90611d8b565b80601f0160208091040260200160405190810160405280929190818152602001828054610ed790611d8b565b8015610f245780601f10610ef957610100808354040283529160200191610f24565b820191906000526020600020905b815481529060010190602001808311610f0757829003601f168201915b50505050508152505081526020019060010190610dcc565b50505050905090565b61104e600260003373ffffffffffffffffffffffffffffffffffffffff1673ffffffffffffffffffffffffffffffffffffffff1681526020019081526020016000206002018054610f9590611d8b565b80601f0160208091040260200160405190810160405280929190818152602001828054610fc190611d8b565b801561100e5780601f10610fe35761010080835404028352916020019161100e565b820191906000526020600020905b815481529060010190602001808311610ff157829003601f168201915b50505050506040518060400160405280600c81526020017f6d616e75666163747572657200000000000000000000000000000000000000008152506113de565b61108d576040517f08c379a00000000000000000000000000000000000000000000000000000000081526004016110849061235c565b60405180910390fd5b6000808560405161109e9190612080565b90815260200160405180910390209050858160000190816110bf9190611f72565b50848160040190816110d19190611f72565b50838160010190816110e39190611f72565b50828160030190816110f59190611f72565b50818160050190816111079190611f72565b5080600601339080600181540180825580915050600190039060005260206000200160009091909190916101000a81548173ffffffffffffffffffffffffffffffffffffffff021916908373ffffffffffffffffffffffffffffffffffffffff160217905550338160070160006101000a81548173ffffffffffffffffffffffffffffffffffffffff021916908373ffffffffffffffffffffffffffffffffffffffff160217905550600160003373ffffffffffffffffffffffffffffffffffffffff1673ffffffffffffffffffffffffffffffffffffffff168152602001908152602001600020859080600181540180825580915050600190039060005260206000200160009091909190915090816112219190611f72565b50505050505050565b6000808380549050905060005b60018261124491906123ab565b81101561139d576112fa84868381548110611262576112616123df565b5b90600052602060002001805461127790611d8b565b80601f01602080910402602001604051908101604052809291908181526020018280546112a390611d8b565b80156112f05780601f106112c5576101008083540402835291602001916112f0565b820191906000526020600020905b8154815290600101906020018083116112d357829003601f168201915b50505050506113de565b1561138a578460018261130d919061240e565b8154811061131e5761131d6123df565b5b9060005260206000200185828154811061133b5761133a6123df565b5b906000526020600020019081611351919061246d565b508385600183611361919061240e565b81548110611372576113716123df565b5b9060005260206000200190816113889190611f72565b505b808061139590612555565b915050611237565b50836001826113ac91906123ab565b815481106113bd576113bc6123df565b5b9060005260206000200160006113d39190611494565b600191505092915050565b6000816040516020016113f19190612080565b60405160208183030381529060405280519060200120836040516020016114189190612080565b6040516020818303038152906040528051906020012014905092915050565b604051806101000160405280606081526020016060815260200160001515815260200160608152602001606081526020016060815260200160608152602001600073ffffffffffffffffffffffffffffffffffffffff1681525090565b5080546114a090611d8b565b6000825580601f106114b257506114d1565b601f0160209004906000526020600020908101906114d091906114d4565b5b50565b5b808211156114ed5760008160009055506001016114d5565b5090565b6000604051905090565b600080fd5b600080fd5b600080fd5b600080fd5b6000601f19601f8301169050919050565b7f4e487b7100000000000000000000000000000000000000000000000000000000600052604160045260246000fd5b6115588261150f565b810181811067ffffffffffffffff8211171561157757611576611520565b5b80604052505050565b600061158a6114f1565b9050611596828261154f565b919050565b600067ffffffffffffffff8211156115b6576115b5611520565b5b6115bf8261150f565b9050602081019050919050565b82818337600083830152505050565b60006115ee6115e98461159b565b611580565b90508281526020810184848401111561160a5761160961150a565b5b6116158482856115cc565b509392505050565b600082601f83011261163257611631611505565b5b81356116428482602086016115db565b91505092915050565b60008060408385031215611662576116616114fb565b5b600083013567ffffffffffffffff8111156116805761167f611500565b5b61168c8582860161161d565b925050602083013567ffffffffffffffff8111156116ad576116ac611500565b5b6116b98582860161161d565b9150509250929050565b6000602082840312156116d9576116d86114fb565b5b600082013567ffffffffffffffff8111156116f7576116f6611500565b5b6117038482850161161d565b91505092915050565b600081519050919050565b600082825260208201905092915050565b60005b8381101561174657808201518184015260208101905061172b565b60008484015250505050565b600061175d8261170c565b6117678185611717565b9350611777818560208601611728565b6117808161150f565b840191505092915050565b60008115159050919050565b6117a08161178b565b82525050565b600081519050919050565b600082825260208201905092915050565b6000819050602082019050919050565b600073ffffffffffffffffffffffffffffffffffffffff82169050919050565b60006117fd826117d2565b9050919050565b61180d816117f2565b82525050565b600061181f8383611804565b60208301905092915050565b6000602082019050919050565b6000611843826117a6565b61184d81856117b1565b9350611858836117c2565b8060005b838110156118895781516118708882611813565b975061187b8361182b565b92505060018101905061185c565b5085935050505092915050565b60006101008301600083015184820360008601526118b48282611752565b915050602083015184820360208601526118ce8282611752565b91505060408301516118e36040860182611797565b50606083015184820360608601526118fb8282611752565b915050608083015184820360808601526119158282611752565b91505060a083015184820360a086015261192f8282611752565b91505060c083015184820360c08601526119498282611838565b91505060e083015161195e60e0860182611804565b508091505092915050565b600060208201905081810360008301526119838184611896565b905092915050565b611994816117f2565b811461199f57600080fd5b50565b6000813590506119b18161198b565b92915050565b600080604083850312156119ce576119cd6114fb565b5b60006119dc858286016119a2565b925050602083013567ffffffffffffffff8111156119fd576119fc611500565b5b611a098582860161161d565b9150509250929050565b611a1c8161178b565b82525050565b6000602082019050611a376000830184611a13565b92915050565b600081519050919050565b600082825260208201905092915050565b6000819050602082019050919050565b6000611a758383611752565b905092915050565b6000602082019050919050565b6000611a9582611a3d565b611a9f8185611a48565b935083602082028501611ab185611a59565b8060005b85811015611aed5784840389528151611ace8582611a69565b9450611ad983611a7d565b925060208a01995050600181019050611ab5565b50829750879550505050505092915050565b60006020820190508181036000830152611b198184611a8a565b905092915050565b600081519050919050565b600082825260208201905092915050565b6000819050602082019050919050565b6000606083016000830151611b656000860182611804565b506020830151611b786020860182611804565b5060408301518482036040860152611b908282611752565b9150508091505092915050565b6000611ba98383611b4d565b905092915050565b6000602082019050919050565b6000611bc982611b21565b611bd38185611b2c565b935083602082028501611be585611b3d565b8060005b85811015611c215784840389528151611c028582611b9d565b9450611c0d83611bb1565b925060208a01995050600181019050611be9565b50829750879550505050505092915050565b60006020820190508181036000830152611c4d8184611bbe565b905092915050565b600080600080600060a08688031215611c7157611c706114fb565b5b600086013567ffffffffffffffff811115611c8f57611c8e611500565b5b611c9b8882890161161d565b955050602086013567ffffffffffffffff811115611cbc57611cbb611500565b5b611cc88882890161161d565b945050604086013567ffffffffffffffff811115611ce957611ce8611500565b5b611cf58882890161161d565b935050606086013567ffffffffffffffff811115611d1657611d15611500565b5b611d228882890161161d565b925050608086013567ffffffffffffffff811115611d4357611d42611500565b5b611d4f8882890161161d565b9150509295509295909350565b7f4e487b7100000000000000000000000000000000000000000000000000000000600052602260045260246000fd5b60006002820490506001821680611da357607f821691505b602082108103611db657611db5611d5c565b5b50919050565b60008190508160005260206000209050919050565b60006020601f8301049050919050565b600082821b905092915050565b600060088302611e1e7fffffffffffffffffffffffffffffffffffffffffffffffffffffffffffffffff82611de1565b611e288683611de1565b95508019841693508086168417925050509392505050565b6000819050919050565b6000819050919050565b6000611e6f611e6a611e6584611e40565b611e4a565b611e40565b9050919050565b6000819050919050565b611e8983611e54565b611e9d611e9582611e76565b848454611dee565b825550505050565b600090565b611eb2611ea5565b611ebd818484611e80565b505050565b5b81811015611ee157611ed6600082611eaa565b600181019050611ec3565b5050565b601f821115611f2657611ef781611dbc565b611f0084611dd1565b81016020851015611f0f578190505b611f23611f1b85611dd1565b830182611ec2565b50505b505050565b600082821c905092915050565b6000611f4960001984600802611f2b565b1980831691505092915050565b6000611f628383611f38565b9150826002028217905092915050565b611f7b8261170c565b67ffffffffffffffff811115611f9457611f93611520565b5b611f9e8254611d8b565b611fa9828285611ee5565b600060209050601f831160018114611fdc5760008415611fca578287015190505b611fd48582611f56565b86555061203c565b601f198416611fea86611dbc565b60005b8281101561201257848901518255600182019150602085019450602081019050611fed565b8683101561202f578489015161202b601f891682611f38565b8355505b6001600288020188555050505b505050505050565b600081905092915050565b600061205a8261170c565b6120648185612044565b9350612074818560208601611728565b80840191505092915050565b600061208c828461204f565b915081905092915050565b600082825260208201905092915050565b7f596f7520617265206e6f7420746865207269676874206f776e6572206f66207460008201527f6869732050726f64756374000000000000000000000000000000000000000000602082015250565b6000612104602b83612097565b915061210f826120a8565b604082019050919050565b60006020820190508181036000830152612133816120f7565b9050919050565b7f596f7520617265206e6f7420746865207269676874206f776e65720000000000600082015250565b6000612170601b83612097565b915061217b8261213a565b602082019050919050565b6000602082019050818103600083015261219f81612163565b9050919050565b7f596f7520646f6e2774206f776e20616e792070726f6475637400000000000000600082015250565b60006121dc601983612097565b91506121e7826121a6565b602082019050919050565b6000602082019050818103600083015261220b816121cf565b9050919050565b6000815461221f81611d8b565b6122298186612097565b94506001821660008114612244576001811461225a5761228d565b60ff19831686528115156020028601935061228d565b61226385611dbc565b60005b8381101561228557815481890152600182019150602081019050612266565b808801955050505b50505092915050565b61229f816117f2565b82525050565b600060608201905081810360008301526122bf8186612212565b90506122ce6020830185612296565b81810360408301526122e08184612212565b9050949350505050565b7f4f6e6c79206d616e7566616374757265722063616e206164642074686520707260008201527f6f64756374000000000000000000000000000000000000000000000000000000602082015250565b6000612346602583612097565b9150612351826122ea565b604082019050919050565b6000602082019050818103600083015261237581612339565b9050919050565b7f4e487b7100000000000000000000000000000000000000000000000000000000600052601160045260246000fd5b60006123b682611e40565b91506123c183611e40565b92508282039050818111156123d9576123d861237c565b5b92915050565b7f4e487b7100000000000000000000000000000000000000000000000000000000600052603260045260246000fd5b600061241982611e40565b915061242483611e40565b925082820190508082111561243c5761243b61237c565b5b92915050565b60008154905061245181611d8b565b9050919050565b60008190508160005260206000209050919050565b81810361247b575050612553565b61248482612442565b67ffffffffffffffff81111561249d5761249c611520565b5b6124a78254611d8b565b6124b2828285611ee5565b6000601f8311600181146124e157600084156124cf578287015490505b6124d98582611f56565b86555061254c565b601f1984166124ef87612458565b96506124fa86611dbc565b60005b82811015612522578489015482556001820191506001850194506020810190506124fd565b8683101561253f578489015461253b601f891682611f38565b8355505b6001600288020188555050505b5050505050505b565b600061256082611e40565b91507fffffffffffffffffffffffffffffffffffffffffffffffffffffffffffffffff82036125925761259161237c565b5b60018201905091905056fea26469706673582212201c93c7d5aafc605097d70dc69775680eb3afa21aaf9423674a59275f49ffffa864736f6c63430008110033",
  "immutableReferences": {},
  "source": "// SPDX-License-Identifier: MIT\r\npragma solidity ^0.8.0;\r\n\r\ncontract OwnerManagment{\r\n    struct Product{\r\n        string name;\r\n        string brand;\r\n        bool theft;\r\n        string description;\r\n        string hash;\r\n        string category;\r\n        address[] customers;\r\n        address owner;\r\n    }\r\n\r\n    struct user{\r\n        string name;\r\n        address wallet;\r\n        string role;\r\n    }\r\n\r\n    struct transaction{\r\n        address sender;\r\n        address reciever;\r\n        string productHash; \r\n    }\r\n\r\n    // events to get the details \r\n    event userProfile(string name,address wallet,string role);\r\n\r\n\r\n    // this map is to get the details of the product that is associated with the product\r\n    mapping (string=>Product) productMap;\r\n    // this map is to basically get the details of the product owned by a particular user\r\n    mapping (address=>string []) CurrentlyOwns;\r\n    //adress user ka hashvalue product ki int \r\n    \r\n    // this map is to basically get the details of user\r\n    mapping(address=>user) userDetails;\r\n\r\n    transaction[] history; \r\n\r\n\r\n    //Assuming that only manufacturer is adding the product on the portal\r\n    modifier onlyManufacturer{\r\n        require(compareStrings(userDetails[msg.sender].role,\"manufacturer\"),\"Only manufacturer can add the product\");\r\n        _;\r\n    }\r\n    \r\n\r\n\r\n    //compare string function\r\n    function compareStrings(string memory a, string memory b) private pure returns (bool) {\r\n        return (keccak256(abi.encodePacked((a))) == keccak256(abi.encodePacked((b))));\r\n    }\r\n\r\n    function addProduct(string memory name,string memory hash, string memory brand, string memory description, string memory category) public onlyManufacturer {\r\n        Product storage currProduct = productMap[hash];\r\n        currProduct.name = name;\r\n        currProduct.hash = hash;\r\n        currProduct.brand = brand;\r\n        currProduct.description = description;\r\n        currProduct.category = category;\r\n        currProduct.customers.push(msg.sender);\r\n        currProduct.owner = msg.sender;\r\n        CurrentlyOwns[msg.sender].push(hash);\r\n    }\r\n\r\n    function TransferOwnerShip(address newOwner,string memory hash)public returns(bool){\r\n        // check is current user is holding the ownership or not\r\n        require(msg.sender==productMap[hash].owner,\"You are not the right owner of this Product\");\r\n        // pass the owner ship to this new owner\r\n        productMap[hash].owner = newOwner;\r\n        // add this owner to maintain the history of owners of this product\r\n        productMap[hash].customers.push(newOwner);\r\n        // add this product to the portfolia of the user\r\n\r\n        CurrentlyOwns[newOwner].push(hash);\r\n\r\n        // remove from the previous owner\r\n        remove(CurrentlyOwns[msg.sender],hash);\r\n\r\n        \r\n        history.push(transaction(msg.sender,newOwner,hash));\r\n\r\n\r\n         return true;\r\n\r\n    }\r\n\r\n    function remove(string[] storage array,string memory hash)  internal returns(bool){\r\n        uint length = array.length;\r\n       \r\n        for(uint i=0;i<length-1;i++){\r\n            if(compareStrings(hash,array[i])){\r\n                array[i] = array[i+1];\r\n                array[i+1] = hash;\r\n            }\r\n        }\r\n        delete(array[length-1]);\r\n        return true;\r\n    }\r\n\r\n\r\n    function reportStolen(string memory productHash) public {\r\n        require(msg.sender==productMap[productHash].owner,\"You are not the right owner\");\r\n        productMap[productHash].theft = true;\r\n        remove(CurrentlyOwns[msg.sender],productHash);\r\n    }\r\n\r\n    function addUser(string memory name,string memory role) public {\r\n        user storage currUser = userDetails[msg.sender];\r\n        currUser.name = name;\r\n        currUser.wallet = msg.sender;\r\n        currUser.role = role;\r\n    }\r\n\r\n\r\n    function getProductDetails(string memory hash) public view returns(Product memory){\r\n         return productMap[hash];\r\n    }\r\n\r\n    function getUserDetails()public {\r\n        emit userProfile(userDetails[msg.sender].name, userDetails[msg.sender].wallet, userDetails[msg.sender].role);\r\n    }\r\n\r\n    function getUserPortFolio() public view returns(string[] memory){\r\n        require(CurrentlyOwns[msg.sender].length>0,\"You don't own any product\");\r\n        return CurrentlyOwns[msg.sender];\r\n    }\r\n\r\n    function returnHistory() public view returns(transaction[] memory){\r\n        return history;\r\n    }\r\n\r\n\r\n}\r\n\r\n\r\n// 0xa881411cda825C612A2EdF0Ceec689DCbeB769eb contract address",
  "sourcePath": "C:\\Users\\sher\\Desktop\\ownit\\ownit\\blockchain\\contracts\\OwnerManagment.sol",
  "compiler": {
    "name": "solc",
    "version": "0.8.17+commit.8df45f5f.Emscripten.clang"
  },
  "schemaVersion": "3.4.10",
  "updatedAt": "2022-11-22T19:21:30.225Z",
  "networkType": "ethereum",
  "devdoc": {
    "kind": "dev",
    "methods": {},
    "version": 1
  },
  "userdoc": {
    "kind": "user",
    "methods": {},
    "version": 1
  }
}