{
  "contractName": "OwnerManagment",
  "abi": [
    {
      "anonymous": false,
      "inputs": [
        {
          "indexed": false,
          "internalType": "string",
          "name": "name",
          "type": "string"
        },
        {
          "indexed": false,
          "internalType": "address",
          "name": "wallet",
          "type": "address"
        },
        {
          "indexed": false,
          "internalType": "string",
          "name": "role",
          "type": "string"
        }
      ],
      "name": "userProfile",
      "type": "event"
    },
    {
      "inputs": [
        {
          "internalType": "string",
          "name": "name",
          "type": "string"
        },
        {
          "internalType": "string",
          "name": "hash",
          "type": "string"
        },
        {
          "internalType": "string",
          "name": "price",
          "type": "string"
        },
        {
          "internalType": "string",
          "name": "description",
          "type": "string"
        },
        {
          "internalType": "string[]",
          "name": "category",
          "type": "string[]"
        }
      ],
      "name": "addProduct",
      "outputs": [],
      "stateMutability": "nonpayable",
      "type": "function"
    },
    {
      "inputs": [
        {
          "internalType": "address",
          "name": "newOwner",
          "type": "address"
        },
        {
          "internalType": "string",
          "name": "hash",
          "type": "string"
        }
      ],
      "name": "TransferOwnerShip",
      "outputs": [
        {
          "internalType": "bool",
          "name": "",
          "type": "bool"
        }
      ],
      "stateMutability": "nonpayable",
      "type": "function"
    },
    {
      "inputs": [
        {
          "internalType": "string",
          "name": "productHash",
          "type": "string"
        }
      ],
      "name": "reportStolen",
      "outputs": [],
      "stateMutability": "nonpayable",
      "type": "function"
    },
    {
      "inputs": [
        {
          "internalType": "string",
          "name": "name",
          "type": "string"
        },
        {
          "internalType": "string",
          "name": "role",
          "type": "string"
        }
      ],
      "name": "addUser",
      "outputs": [],
      "stateMutability": "nonpayable",
      "type": "function"
    },
    {
      "inputs": [
        {
          "internalType": "string",
          "name": "hash",
          "type": "string"
        }
      ],
      "name": "getProductDetails",
      "outputs": [
        {
          "components": [
            {
              "internalType": "string",
              "name": "name",
              "type": "string"
            },
            {
              "internalType": "string",
              "name": "price",
              "type": "string"
            },
            {
              "internalType": "bool",
              "name": "theft",
              "type": "bool"
            },
            {
              "internalType": "string",
              "name": "description",
              "type": "string"
            },
            {
              "internalType": "string",
              "name": "hash",
              "type": "string"
            },
            {
              "internalType": "string[]",
              "name": "category",
              "type": "string[]"
            },
            {
              "internalType": "address[]",
              "name": "customers",
              "type": "address[]"
            },
            {
              "internalType": "address",
              "name": "owner",
              "type": "address"
            }
          ],
          "internalType": "struct OwnerManagment.Product",
          "name": "",
          "type": "tuple"
        }
      ],
      "stateMutability": "view",
      "type": "function",
      "constant": true
    },
    {
      "inputs": [],
      "name": "getUserDetails",
      "outputs": [],
      "stateMutability": "nonpayable",
      "type": "function"
    },
    {
      "inputs": [],
      "name": "getUserPortFolio",
      "outputs": [
        {
          "internalType": "string[]",
          "name": "",
          "type": "string[]"
        }
      ],
      "stateMutability": "view",
      "type": "function",
      "constant": true
    },
    {
      "inputs": [],
      "name": "returnHistory",
      "outputs": [
        {
          "components": [
            {
              "internalType": "address",
              "name": "sender",
              "type": "address"
            },
            {
              "internalType": "address",
              "name": "reciever",
              "type": "address"
            },
            {
              "internalType": "string",
              "name": "productHash",
              "type": "string"
            }
          ],
          "internalType": "struct OwnerManagment.transaction[]",
          "name": "",
          "type": "tuple[]"
        }
      ],
      "stateMutability": "view",
      "type": "function",
      "constant": true
    }
  ],
  "bytecode": "0x608060405234801561001057600080fd5b5061280a806100206000396000f3fe608060405234801561001057600080fd5b50600436106100885760003560e01c806370fe9a401161005b57806370fe9a4014610125578063889e6f8914610141578063942886be1461015f578063a4778f141461016957610088565b8063079eaf341461008d578063198c59b0146100a95780631be0c30f146100d95780636ac64ff914610109575b600080fd5b6100a760048036038101906100a29190611716565b610187565b005b6100c360048036038101906100be919061178e565b610236565b6040516100d09190611af6565b60405180910390f35b6100f360048036038101906100ee9190611b44565b61068f565b6040516101009190611baf565b60405180910390f35b610123600480360381019061011e9190611cb0565b6109fe565b005b61013f600480360381019061013a919061178e565b610cea565b005b610149610e1f565b6040516101569190611e3d565b60405180910390f35b610167610fba565b005b6101716110db565b60405161017e9190611f71565b60405180910390f35b6000600260003373ffffffffffffffffffffffffffffffffffffffff1673ffffffffffffffffffffffffffffffffffffffff1681526020019081526020016000209050828160000190816101db91906121a9565b50338160010160006101000a81548173ffffffffffffffffffffffffffffffffffffffff021916908373ffffffffffffffffffffffffffffffffffffffff1602179055508181600201908161023091906121a9565b50505050565b61023e611485565b60008260405161024e91906122b7565b90815260200160405180910390206040518061010001604052908160008201805461027890611fc2565b80601f01602080910402602001604051908101604052809291908181526020018280546102a490611fc2565b80156102f15780601f106102c6576101008083540402835291602001916102f1565b820191906000526020600020905b8154815290600101906020018083116102d457829003601f168201915b5050505050815260200160018201805461030a90611fc2565b80601f016020809104026020016040519081016040528092919081815260200182805461033690611fc2565b80156103835780601f1061035857610100808354040283529160200191610383565b820191906000526020600020905b81548152906001019060200180831161036657829003601f168201915b505050505081526020016002820160009054906101000a900460ff161515151581526020016003820180546103b790611fc2565b80601f01602080910402602001604051908101604052809291908181526020018280546103e390611fc2565b80156104305780601f1061040557610100808354040283529160200191610430565b820191906000526020600020905b81548152906001019060200180831161041357829003601f168201915b5050505050815260200160048201805461044990611fc2565b80601f016020809104026020016040519081016040528092919081815260200182805461047590611fc2565b80156104c25780601f10610497576101008083540402835291602001916104c2565b820191906000526020600020905b8154815290600101906020018083116104a557829003601f168201915b5050505050815260200160058201805480602002602001604051908101604052809291908181526020016000905b8282101561059c57838290600052602060002001805461050f90611fc2565b80601f016020809104026020016040519081016040528092919081815260200182805461053b90611fc2565b80156105885780601f1061055d57610100808354040283529160200191610588565b820191906000526020600020905b81548152906001019060200180831161056b57829003601f168201915b5050505050815260200190600101906104f0565b5050505081526020016006820180548060200260200160405190810160405280929190818152602001828054801561062957602002820191906000526020600020905b8160009054906101000a900473ffffffffffffffffffffffffffffffffffffffff1673ffffffffffffffffffffffffffffffffffffffff16815260200190600101908083116105df575b505050505081526020016007820160009054906101000a900473ffffffffffffffffffffffffffffffffffffffff1673ffffffffffffffffffffffffffffffffffffffff1673ffffffffffffffffffffffffffffffffffffffff16815250509050919050565b600080826040516106a091906122b7565b908152602001604051809103902060070160009054906101000a900473ffffffffffffffffffffffffffffffffffffffff1673ffffffffffffffffffffffffffffffffffffffff163373ffffffffffffffffffffffffffffffffffffffff161461073f576040517f08c379a000000000000000000000000000000000000000000000000000000000815260040161073690612351565b60405180910390fd5b8260008360405161075091906122b7565b908152602001604051809103902060070160006101000a81548173ffffffffffffffffffffffffffffffffffffffff021916908373ffffffffffffffffffffffffffffffffffffffff1602179055506000826040516107af91906122b7565b9081526020016040518091039020600601839080600181540180825580915050600190039060005260206000200160009091909190916101000a81548173ffffffffffffffffffffffffffffffffffffffff021916908373ffffffffffffffffffffffffffffffffffffffff160217905550600160008473ffffffffffffffffffffffffffffffffffffffff1673ffffffffffffffffffffffffffffffffffffffff1681526020019081526020016000208290806001815401808255809150506001900390600052602060002001600090919091909150908161089291906121a9565b506108db600160003373ffffffffffffffffffffffffffffffffffffffff1673ffffffffffffffffffffffffffffffffffffffff16815260200190815260200160002083611278565b50600360405180606001604052803373ffffffffffffffffffffffffffffffffffffffff1681526020018573ffffffffffffffffffffffffffffffffffffffff16815260200184815250908060018154018082558091505060019003906000526020600020906003020160009091909190915060008201518160000160006101000a81548173ffffffffffffffffffffffffffffffffffffffff021916908373ffffffffffffffffffffffffffffffffffffffff16021790555060208201518160010160006101000a81548173ffffffffffffffffffffffffffffffffffffffff021916908373ffffffffffffffffffffffffffffffffffffffff16021790555060408201518160020190816109f191906121a9565b5050506001905092915050565b610b07600260003373ffffffffffffffffffffffffffffffffffffffff1673ffffffffffffffffffffffffffffffffffffffff1681526020019081526020016000206002018054610a4e90611fc2565b80601f0160208091040260200160405190810160405280929190818152602001828054610a7a90611fc2565b8015610ac75780601f10610a9c57610100808354040283529160200191610ac7565b820191906000526020600020905b815481529060010190602001808311610aaa57829003601f168201915b50505050506040518060400160405280600c81526020017f6d616e756661637475726572000000000000000000000000000000000000000081525061142c565b610b46576040517f08c379a0000000000000000000000000000000000000000000000000000000008152600401610b3d906123e3565b60405180910390fd5b60008085604051610b5791906122b7565b9081526020016040518091039020905085816000019081610b7891906121a9565b5084816004019081610b8a91906121a9565b5083816001019081610b9c91906121a9565b5082816003019081610bae91906121a9565b5081816005019080519060200190610bc79291906114e2565b5080600601339080600181540180825580915050600190039060005260206000200160009091909190916101000a81548173ffffffffffffffffffffffffffffffffffffffff021916908373ffffffffffffffffffffffffffffffffffffffff160217905550338160070160006101000a81548173ffffffffffffffffffffffffffffffffffffffff021916908373ffffffffffffffffffffffffffffffffffffffff160217905550600160003373ffffffffffffffffffffffffffffffffffffffff1673ffffffffffffffffffffffffffffffffffffffff16815260200190815260200160002085908060018154018082558091505060019003906000526020600020016000909190919091509081610ce191906121a9565b50505050505050565b600081604051610cfa91906122b7565b908152602001604051809103902060070160009054906101000a900473ffffffffffffffffffffffffffffffffffffffff1673ffffffffffffffffffffffffffffffffffffffff163373ffffffffffffffffffffffffffffffffffffffff1614610d99576040517f08c379a0000000000000000000000000000000000000000000000000000000008152600401610d909061244f565b60405180910390fd5b6001600082604051610dab91906122b7565b908152602001604051809103902060020160006101000a81548160ff021916908315150217905550610e1b600160003373ffffffffffffffffffffffffffffffffffffffff1673ffffffffffffffffffffffffffffffffffffffff16815260200190815260200160002082611278565b5050565b60606000600160003373ffffffffffffffffffffffffffffffffffffffff1673ffffffffffffffffffffffffffffffffffffffff1681526020019081526020016000208054905011610ea6576040517f08c379a0000000000000000000000000000000000000000000000000000000008152600401610e9d906124bb565b60405180910390fd5b600160003373ffffffffffffffffffffffffffffffffffffffff1673ffffffffffffffffffffffffffffffffffffffff168152602001908152602001600020805480602002602001604051908101604052809291908181526020016000905b82821015610fb1578382906000526020600020018054610f2490611fc2565b80601f0160208091040260200160405190810160405280929190818152602001828054610f5090611fc2565b8015610f9d5780601f10610f7257610100808354040283529160200191610f9d565b820191906000526020600020905b815481529060010190602001808311610f8057829003601f168201915b505050505081526020019060010190610f05565b50505050905090565b7fda7f1b8da7beb98747cd29867adf26e3cb598f42d94f88f8401d0eb09d415045600260003373ffffffffffffffffffffffffffffffffffffffff1673ffffffffffffffffffffffffffffffffffffffff168152602001908152602001600020600001600260003373ffffffffffffffffffffffffffffffffffffffff1673ffffffffffffffffffffffffffffffffffffffff16815260200190815260200160002060010160009054906101000a900473ffffffffffffffffffffffffffffffffffffffff16600260003373ffffffffffffffffffffffffffffffffffffffff1673ffffffffffffffffffffffffffffffffffffffff1681526020019081526020016000206002016040516110d19392919061256e565b60405180910390a1565b60606003805480602002602001604051908101604052809291908181526020016000905b8282101561126f57838290600052602060002090600302016040518060600160405290816000820160009054906101000a900473ffffffffffffffffffffffffffffffffffffffff1673ffffffffffffffffffffffffffffffffffffffff1673ffffffffffffffffffffffffffffffffffffffff1681526020016001820160009054906101000a900473ffffffffffffffffffffffffffffffffffffffff1673ffffffffffffffffffffffffffffffffffffffff1673ffffffffffffffffffffffffffffffffffffffff1681526020016002820180546111de90611fc2565b80601f016020809104026020016040519081016040528092919081815260200182805461120a90611fc2565b80156112575780601f1061122c57610100808354040283529160200191611257565b820191906000526020600020905b81548152906001019060200180831161123a57829003601f168201915b505050505081525050815260200190600101906110ff565b50505050905090565b6000808380549050905060005b60018261129291906125e2565b8110156113eb57611348848683815481106112b0576112af612616565b5b9060005260206000200180546112c590611fc2565b80601f01602080910402602001604051908101604052809291908181526020018280546112f190611fc2565b801561133e5780601f106113135761010080835404028352916020019161133e565b820191906000526020600020905b81548152906001019060200180831161132157829003601f168201915b505050505061142c565b156113d8578460018261135b9190612645565b8154811061136c5761136b612616565b5b9060005260206000200185828154811061138957611388612616565b5b90600052602060002001908161139f91906126a4565b5083856001836113af9190612645565b815481106113c0576113bf612616565b5b9060005260206000200190816113d691906121a9565b505b80806113e39061278c565b915050611285565b50836001826113fa91906125e2565b8154811061140b5761140a612616565b5b906000526020600020016000611421919061153b565b600191505092915050565b60008160405160200161143f91906122b7565b604051602081830303815290604052805190602001208360405160200161146691906122b7565b6040516020818303038152906040528051906020012014905092915050565b604051806101000160405280606081526020016060815260200160001515815260200160608152602001606081526020016060815260200160608152602001600073ffffffffffffffffffffffffffffffffffffffff1681525090565b82805482825590600052602060002090810192821561152a579160200282015b8281111561152957825182908161151991906121a9565b5091602001919060010190611502565b5b509050611537919061157b565b5090565b50805461154790611fc2565b6000825580601f106115595750611578565b601f016020900490600052602060002090810190611577919061159f565b5b50565b5b8082111561159b5760008181611592919061153b565b5060010161157c565b5090565b5b808211156115b85760008160009055506001016115a0565b5090565b6000604051905090565b600080fd5b600080fd5b600080fd5b600080fd5b6000601f19601f8301169050919050565b7f4e487b7100000000000000000000000000000000000000000000000000000000600052604160045260246000fd5b611623826115da565b810181811067ffffffffffffffff82111715611642576116416115eb565b5b80604052505050565b60006116556115bc565b9050611661828261161a565b919050565b600067ffffffffffffffff821115611681576116806115eb565b5b61168a826115da565b9050602081019050919050565b82818337600083830152505050565b60006116b96116b484611666565b61164b565b9050828152602081018484840111156116d5576116d46115d5565b5b6116e0848285611697565b509392505050565b600082601f8301126116fd576116fc6115d0565b5b813561170d8482602086016116a6565b91505092915050565b6000806040838503121561172d5761172c6115c6565b5b600083013567ffffffffffffffff81111561174b5761174a6115cb565b5b611757858286016116e8565b925050602083013567ffffffffffffffff811115611778576117776115cb565b5b611784858286016116e8565b9150509250929050565b6000602082840312156117a4576117a36115c6565b5b600082013567ffffffffffffffff8111156117c2576117c16115cb565b5b6117ce848285016116e8565b91505092915050565b600081519050919050565b600082825260208201905092915050565b60005b838110156118115780820151818401526020810190506117f6565b60008484015250505050565b6000611828826117d7565b61183281856117e2565b93506118428185602086016117f3565b61184b816115da565b840191505092915050565b60008115159050919050565b61186b81611856565b82525050565b600081519050919050565b600082825260208201905092915050565b6000819050602082019050919050565b60006118a9838361181d565b905092915050565b6000602082019050919050565b60006118c982611871565b6118d3818561187c565b9350836020820285016118e58561188d565b8060005b858110156119215784840389528151611902858261189d565b945061190d836118b1565b925060208a019950506001810190506118e9565b50829750879550505050505092915050565b600081519050919050565b600082825260208201905092915050565b6000819050602082019050919050565b600073ffffffffffffffffffffffffffffffffffffffff82169050919050565b600061198a8261195f565b9050919050565b61199a8161197f565b82525050565b60006119ac8383611991565b60208301905092915050565b6000602082019050919050565b60006119d082611933565b6119da818561193e565b93506119e58361194f565b8060005b83811015611a165781516119fd88826119a0565b9750611a08836119b8565b9250506001810190506119e9565b5085935050505092915050565b6000610100830160008301518482036000860152611a41828261181d565b91505060208301518482036020860152611a5b828261181d565b9150506040830151611a706040860182611862565b5060608301518482036060860152611a88828261181d565b91505060808301518482036080860152611aa2828261181d565b91505060a083015184820360a0860152611abc82826118be565b91505060c083015184820360c0860152611ad682826119c5565b91505060e0830151611aeb60e0860182611991565b508091505092915050565b60006020820190508181036000830152611b108184611a23565b905092915050565b611b218161197f565b8114611b2c57600080fd5b50565b600081359050611b3e81611b18565b92915050565b60008060408385031215611b5b57611b5a6115c6565b5b6000611b6985828601611b2f565b925050602083013567ffffffffffffffff811115611b8a57611b896115cb565b5b611b96858286016116e8565b9150509250929050565b611ba981611856565b82525050565b6000602082019050611bc46000830184611ba0565b92915050565b600067ffffffffffffffff821115611be557611be46115eb565b5b602082029050602081019050919050565b600080fd5b6000611c0e611c0984611bca565b61164b565b90508083825260208201905060208402830185811115611c3157611c30611bf6565b5b835b81811015611c7857803567ffffffffffffffff811115611c5657611c556115d0565b5b808601611c6389826116e8565b85526020850194505050602081019050611c33565b5050509392505050565b600082601f830112611c9757611c966115d0565b5b8135611ca7848260208601611bfb565b91505092915050565b600080600080600060a08688031215611ccc57611ccb6115c6565b5b600086013567ffffffffffffffff811115611cea57611ce96115cb565b5b611cf6888289016116e8565b955050602086013567ffffffffffffffff811115611d1757611d166115cb565b5b611d23888289016116e8565b945050604086013567ffffffffffffffff811115611d4457611d436115cb565b5b611d50888289016116e8565b935050606086013567ffffffffffffffff811115611d7157611d706115cb565b5b611d7d888289016116e8565b925050608086013567ffffffffffffffff811115611d9e57611d9d6115cb565b5b611daa88828901611c82565b9150509295509295909350565b600082825260208201905092915050565b6000611dd382611871565b611ddd8185611db7565b935083602082028501611def8561188d565b8060005b85811015611e2b5784840389528151611e0c858261189d565b9450611e17836118b1565b925060208a01995050600181019050611df3565b50829750879550505050505092915050565b60006020820190508181036000830152611e578184611dc8565b905092915050565b600081519050919050565b600082825260208201905092915050565b6000819050602082019050919050565b6000606083016000830151611ea36000860182611991565b506020830151611eb66020860182611991565b5060408301518482036040860152611ece828261181d565b9150508091505092915050565b6000611ee78383611e8b565b905092915050565b6000602082019050919050565b6000611f0782611e5f565b611f118185611e6a565b935083602082028501611f2385611e7b565b8060005b85811015611f5f5784840389528151611f408582611edb565b9450611f4b83611eef565b925060208a01995050600181019050611f27565b50829750879550505050505092915050565b60006020820190508181036000830152611f8b8184611efc565b905092915050565b7f4e487b7100000000000000000000000000000000000000000000000000000000600052602260045260246000fd5b60006002820490506001821680611fda57607f821691505b602082108103611fed57611fec611f93565b5b50919050565b60008190508160005260206000209050919050565b60006020601f8301049050919050565b600082821b905092915050565b6000600883026120557fffffffffffffffffffffffffffffffffffffffffffffffffffffffffffffffff82612018565b61205f8683612018565b95508019841693508086168417925050509392505050565b6000819050919050565b6000819050919050565b60006120a66120a161209c84612077565b612081565b612077565b9050919050565b6000819050919050565b6120c08361208b565b6120d46120cc826120ad565b848454612025565b825550505050565b600090565b6120e96120dc565b6120f48184846120b7565b505050565b5b818110156121185761210d6000826120e1565b6001810190506120fa565b5050565b601f82111561215d5761212e81611ff3565b61213784612008565b81016020851015612146578190505b61215a61215285612008565b8301826120f9565b50505b505050565b600082821c905092915050565b600061218060001984600802612162565b1980831691505092915050565b6000612199838361216f565b9150826002028217905092915050565b6121b2826117d7565b67ffffffffffffffff8111156121cb576121ca6115eb565b5b6121d58254611fc2565b6121e082828561211c565b600060209050601f8311600181146122135760008415612201578287015190505b61220b858261218d565b865550612273565b601f19841661222186611ff3565b60005b8281101561224957848901518255600182019150602085019450602081019050612224565b868310156122665784890151612262601f89168261216f565b8355505b6001600288020188555050505b505050505050565b600081905092915050565b6000612291826117d7565b61229b818561227b565b93506122ab8185602086016117f3565b80840191505092915050565b60006122c38284612286565b915081905092915050565b600082825260208201905092915050565b7f596f7520617265206e6f7420746865207269676874206f776e6572206f66207460008201527f6869732050726f64756374000000000000000000000000000000000000000000602082015250565b600061233b602b836122ce565b9150612346826122df565b604082019050919050565b6000602082019050818103600083015261236a8161232e565b9050919050565b7f4f6e6c79206d616e7566616374757265722063616e206164642074686520707260008201527f6f64756374000000000000000000000000000000000000000000000000000000602082015250565b60006123cd6025836122ce565b91506123d882612371565b604082019050919050565b600060208201905081810360008301526123fc816123c0565b9050919050565b7f596f7520617265206e6f7420746865207269676874206f776e65720000000000600082015250565b6000612439601b836122ce565b915061244482612403565b602082019050919050565b600060208201905081810360008301526124688161242c565b9050919050565b7f596f7520646f6e2774206f776e20616e792070726f6475637400000000000000600082015250565b60006124a56019836122ce565b91506124b08261246f565b602082019050919050565b600060208201905081810360008301526124d481612498565b9050919050565b600081546124e881611fc2565b6124f281866122ce565b9450600182166000811461250d576001811461252357612556565b60ff198316865281151560200286019350612556565b61252c85611ff3565b60005b8381101561254e5781548189015260018201915060208101905061252f565b808801955050505b50505092915050565b6125688161197f565b82525050565b6000606082019050818103600083015261258881866124db565b9050612597602083018561255f565b81810360408301526125a981846124db565b9050949350505050565b7f4e487b7100000000000000000000000000000000000000000000000000000000600052601160045260246000fd5b60006125ed82612077565b91506125f883612077565b92508282039050818111156126105761260f6125b3565b5b92915050565b7f4e487b7100000000000000000000000000000000000000000000000000000000600052603260045260246000fd5b600061265082612077565b915061265b83612077565b9250828201905080821115612673576126726125b3565b5b92915050565b60008154905061268881611fc2565b9050919050565b60008190508160005260206000209050919050565b8181036126b257505061278a565b6126bb82612679565b67ffffffffffffffff8111156126d4576126d36115eb565b5b6126de8254611fc2565b6126e982828561211c565b6000601f8311600181146127185760008415612706578287015490505b612710858261218d565b865550612783565b601f1984166127268761268f565b965061273186611ff3565b60005b8281101561275957848901548255600182019150600185019450602081019050612734565b868310156127765784890154612772601f89168261216f565b8355505b6001600288020188555050505b5050505050505b565b600061279782612077565b91507fffffffffffffffffffffffffffffffffffffffffffffffffffffffffffffffff82036127c9576127c86125b3565b5b60018201905091905056fea2646970667358221220c1f26432d4b69471af73cde90ee51b7fdb2ab515a4ab87b9056a9d0a244bce2e64736f6c63430008110033",
  "immutableReferences": {},
  "source": "// SPDX-License-Identifier: MIT\r\npragma solidity ^0.8.0;\r\n\r\ncontract OwnerManagment{\r\n    struct Product{\r\n        string name;\r\n        string price;\r\n        bool theft;\r\n        string description;\r\n        string hash;\r\n        string[] category;\r\n        address[] customers;\r\n        address owner;\r\n    }\r\n\r\n    struct user{\r\n        string name;\r\n        address wallet;\r\n        string role;\r\n    }\r\n\r\n    struct transaction{\r\n        address sender;\r\n        address reciever;\r\n        string productHash; \r\n    }\r\n\r\n    // events to get the details \r\n    event userProfile(string name,address wallet,string role);\r\n\r\n\r\n    // this map is to get the details of the product that is associated with the product\r\n    mapping (string=>Product) productMap;\r\n    // this map is to basically get the details of the product owned by a particular user\r\n    mapping (address=>string []) CurrentlyOwns;\r\n    //adress user ka hashvalue product ki int \r\n    \r\n    // this map is to basically get the details of user\r\n    mapping(address=>user) userDetails;\r\n\r\n    transaction[] history; \r\n\r\n\r\n    //Assuming that only manufacturer is adding the product on the portal\r\n    modifier onlyManufacturer{\r\n        require(compareStrings(userDetails[msg.sender].role,\"manufacturer\"),\"Only manufacturer can add the product\");\r\n        _;\r\n    }\r\n    \r\n\r\n\r\n    //compare string function\r\n    function compareStrings(string memory a, string memory b) private pure returns (bool) {\r\n        return (keccak256(abi.encodePacked((a))) == keccak256(abi.encodePacked((b))));\r\n    }\r\n\r\n    function addProduct(string memory name,string memory hash, string memory price, string memory description, string[] memory category) public onlyManufacturer {\r\n        Product storage currProduct = productMap[hash];\r\n        currProduct.name = name;\r\n        currProduct.hash = hash;\r\n        currProduct.price = price;\r\n        currProduct.description = description;\r\n        currProduct.category = category;\r\n        currProduct.customers.push(msg.sender);\r\n        currProduct.owner = msg.sender;\r\n        CurrentlyOwns[msg.sender].push(hash);\r\n    }\r\n\r\n    function TransferOwnerShip(address newOwner,string memory hash)public returns(bool){\r\n        // check is current user is holding the ownership or not\r\n        require(msg.sender==productMap[hash].owner,\"You are not the right owner of this Product\");\r\n        // pass the owner ship to this new owner\r\n        productMap[hash].owner = newOwner;\r\n        // add this owner to maintain the history of owners of this product\r\n        productMap[hash].customers.push(newOwner);\r\n        // add this product to the portfolia of the user\r\n\r\n        CurrentlyOwns[newOwner].push(hash);\r\n\r\n        // remove from the previous owner\r\n        remove(CurrentlyOwns[msg.sender],hash);\r\n\r\n        \r\n        history.push(transaction(msg.sender,newOwner,hash));\r\n\r\n\r\n         return true;\r\n\r\n    }\r\n\r\n    function remove(string[] storage array,string memory hash)  internal returns(bool){\r\n        uint length = array.length;\r\n       \r\n        for(uint i=0;i<length-1;i++){\r\n            if(compareStrings(hash,array[i])){\r\n                array[i] = array[i+1];\r\n                array[i+1] = hash;\r\n            }\r\n        }\r\n        delete(array[length-1]);\r\n        return true;\r\n    }\r\n\r\n\r\n    function reportStolen(string memory productHash) public {\r\n        require(msg.sender==productMap[productHash].owner,\"You are not the right owner\");\r\n        productMap[productHash].theft = true;\r\n        remove(CurrentlyOwns[msg.sender],productHash);\r\n    }\r\n\r\n    function addUser(string memory name,string memory role) public {\r\n        user storage currUser = userDetails[msg.sender];\r\n        currUser.name = name;\r\n        currUser.wallet = msg.sender;\r\n        currUser.role = role;\r\n    }\r\n\r\n\r\n    function getProductDetails(string memory hash) public view returns(Product memory){\r\n         return productMap[hash];\r\n    }\r\n\r\n    function getUserDetails()public {\r\n        emit userProfile(userDetails[msg.sender].name, userDetails[msg.sender].wallet, userDetails[msg.sender].role);\r\n    }\r\n\r\n    function getUserPortFolio() public view returns(string[] memory){\r\n        require(CurrentlyOwns[msg.sender].length>0,\"You don't own any product\");\r\n        return CurrentlyOwns[msg.sender];\r\n    }\r\n\r\n    function returnHistory() public view returns(transaction[] memory){\r\n        return history;\r\n    }\r\n\r\n\r\n}\r\n\r\n\r\n// 0xa881411cda825C612A2EdF0Ceec689DCbeB769eb contract address",
  "sourcePath": "C:\\Users\\sher\\Desktop\\ownit\\ownit\\blockchain\\contracts\\OwnerManagment.sol",
  "compiler": {
    "name": "solc",
    "version": "0.8.17+commit.8df45f5f.Emscripten.clang"
  },
  "schemaVersion": "3.4.10",
  "updatedAt": "2022-11-22T20:35:19.435Z",
  "networkType": "ethereum",
  "devdoc": {
    "kind": "dev",
    "methods": {},
    "version": 1
  },
  "userdoc": {
    "kind": "user",
    "methods": {},
    "version": 1
  }
}